:0300000002095999
:0C095900787FE4F6D8FD75811302084297
:1008000020202020202020202020202020202020E8
:10081000557365206F6E6C79203136206368617284
:1008200000202020202020202020202020202020E8
:1008300020205479706520796F7572204E616D6546
:02084000200096
:0A0965008FA0C2B0120911C2B22225
:0A096F008FA0D2B0120911C2B2220B
:08091100C2B1D2B27F017E00E9
:10091900E4FDFCC3ED9FEC9E5015E4FBFA0BBB0014
:0F092900010ABA04F8BBFBF50DBD00010C80E418
:01093800229C
:0608E6008B0D8A0E890F44
:1008EC00E4F510F511AB0DAA0EA90F851182851038
:1008FC00831208B9FF600D12096F0511E51170E53F
:04090C00051080E171
:0109100022C4
:100880008F088D098B0A8A0B890CEF3395E04F7026
:1008900008E509540F44808013AF08EF3395E0FE5C
:1008A000EF64014E700AE509540F44C0FF12096558
:0908B000AB0AAA0BA90C0208E630
:100939007F147E001209197F381209657F0C12098C
:10094900657F061209657F011209657F80020965C5
:100842001209397BFF7A0879001208E67FC0120983
:10085200657BFF7A0879211208E67FFA7E00120989
:1008620019751330E4F512E512C3951350F67F1C87
:0E0872001209657F1E7E00120919051280E929
:1008B900BB010CE58229F582E5833AF583E02250F4
:1008C90006E92582F8E622BBFE06E92582F8E2223E
:0D08D900E58229F582E5833AF583E4932258
:00000001FF
